{
  "contractName": "Voting",
  "abi": [
    {
      "inputs": [],
      "payable": false,
      "stateMutability": "nonpayable",
      "type": "constructor"
    },
    {
      "constant": true,
      "inputs": [],
      "name": "admin",
      "outputs": [
        {
          "internalType": "address",
          "name": "",
          "type": "address"
        }
      ],
      "payable": false,
      "stateMutability": "view",
      "type": "function"
    },
    {
      "constant": true,
      "inputs": [
        {
          "internalType": "address",
          "name": "",
          "type": "address"
        }
      ],
      "name": "voters",
      "outputs": [
        {
          "internalType": "bool",
          "name": "",
          "type": "bool"
        }
      ],
      "payable": false,
      "stateMutability": "view",
      "type": "function"
    },
    {
      "constant": false,
      "inputs": [
        {
          "internalType": "address[]",
          "name": "_voters",
          "type": "address[]"
        }
      ],
      "name": "addVoters",
      "outputs": [],
      "payable": false,
      "stateMutability": "nonpayable",
      "type": "function"
    },
    {
      "constant": false,
      "inputs": [
        {
          "internalType": "string",
          "name": "name",
          "type": "string"
        },
        {
          "internalType": "string[]",
          "name": "_choices",
          "type": "string[]"
        },
        {
          "internalType": "uint256",
          "name": "offset",
          "type": "uint256"
        }
      ],
      "name": "createBallot",
      "outputs": [],
      "payable": false,
      "stateMutability": "nonpayable",
      "type": "function"
    },
    {
      "constant": false,
      "inputs": [
        {
          "internalType": "uint256",
          "name": "ballotId",
          "type": "uint256"
        },
        {
          "internalType": "uint256",
          "name": "choiceId",
          "type": "uint256"
        }
      ],
      "name": "vote",
      "outputs": [],
      "payable": false,
      "stateMutability": "nonpayable",
      "type": "function"
    },
    {
      "constant": true,
      "inputs": [
        {
          "internalType": "uint256",
          "name": "ballotId",
          "type": "uint256"
        }
      ],
      "name": "results",
      "outputs": [
        {
          "components": [
            {
              "internalType": "uint256",
              "name": "id",
              "type": "uint256"
            },
            {
              "internalType": "string",
              "name": "name",
              "type": "string"
            },
            {
              "internalType": "uint256",
              "name": "votes",
              "type": "uint256"
            }
          ],
          "internalType": "struct Voting.Choice[]",
          "name": "",
          "type": "tuple[]"
        }
      ],
      "payable": false,
      "stateMutability": "view",
      "type": "function"
    }
  ],
  "bytecode": "0x608060405234801561001057600080fd5b5033600360006101000a81548173ffffffffffffffffffffffffffffffffffffffff021916908373ffffffffffffffffffffffffffffffffffffffff16021790555061124e806100616000396000f3fe608060405234801561001057600080fd5b50600436106100625760003560e01c80631b0c27da1461006757806320faae8e146100975780638203373a146100b3578063a3ec138d146100cf578063b384abef146100ff578063f851a4401461011b575b600080fd5b610081600480360361007c9190810190610be1565b610139565b60405161008e9190610f52565b60405180910390f35b6100b160048036036100ac9190810190610b62565b6102bd565b005b6100cd60048036036100c89190810190610b1d565b610492565b005b6100e960048036036100e49190810190610af4565b6105bc565b6040516100f69190610f74565b60405180910390f35b61011960048036036101149190810190610c0a565b6105dc565b005b610123610819565b6040516101309190610f37565b60405180910390f35b60606001600083815260200190815260200160002060030154421015610194576040517f08c379a000000000000000000000000000000000000000000000000000000000815260040161018b9061100f565b60405180910390fd5b60016000838152602001908152602001600020600201805480602002602001604051908101604052809291908181526020016000905b828210156102b2578382906000526020600020906003020160405180606001604052908160008201548152602001600182018054600181600116156101000203166002900480601f0160208091040260200160405190810160405280929190818152602001828054600181600116156101000203166002900480156102905780601f1061026557610100808354040283529160200191610290565b820191906000526020600020905b81548152906001019060200180831161027357829003601f168201915b50505050508152602001600282015481525050815260200190600101906101ca565b505050509050919050565b600360009054906101000a900473ffffffffffffffffffffffffffffffffffffffff1673ffffffffffffffffffffffffffffffffffffffff163373ffffffffffffffffffffffffffffffffffffffff161461034d576040517f08c379a000000000000000000000000000000000000000000000000000000000815260040161034490610fcf565b60405180910390fd5b6002546001600060025481526020019081526020016000206000018190555082600160006002548152602001908152602001600020600101908051906020019061039892919061083f565b508042016001600060025481526020019081526020016000206003018190555060008090505b825181101561047a5760016000600254815260200190815260200160002060020160405180606001604052808381526020018584815181106103fc57fe5b6020026020010151815260200160008152509080600181540180825580915050906001820390600052602060002090600302016000909192909190915060008201518160000155602082015181600101908051906020019061045f9291906108bf565b506040820151816002015550505080806001019150506103be565b50600260008154809291906001019190505550505050565b600360009054906101000a900473ffffffffffffffffffffffffffffffffffffffff1673ffffffffffffffffffffffffffffffffffffffff163373ffffffffffffffffffffffffffffffffffffffff1614610522576040517f08c379a000000000000000000000000000000000000000000000000000000000815260040161051990610fcf565b60405180910390fd5b60008090505b828290508110156105b757600160008085858581811061054457fe5b90506020020160206105599190810190610af4565b73ffffffffffffffffffffffffffffffffffffffff1673ffffffffffffffffffffffffffffffffffffffff16815260200190815260200160002060006101000a81548160ff0219169083151502179055508080600101915050610528565b505050565b60006020528060005260406000206000915054906101000a900460ff1681565b600115156000803373ffffffffffffffffffffffffffffffffffffffff1673ffffffffffffffffffffffffffffffffffffffff16815260200190815260200160002060009054906101000a900460ff1615151461066e576040517f08c379a000000000000000000000000000000000000000000000000000000000815260040161066590610fef565b60405180910390fd5b60001515600460003373ffffffffffffffffffffffffffffffffffffffff1673ffffffffffffffffffffffffffffffffffffffff168152602001908152602001600020600084815260200190815260200160002060009054906101000a900460ff16151514610712576040517f08c379a000000000000000000000000000000000000000000000000000000000815260040161070990610f8f565b60405180910390fd5b6001600083815260200190815260200160002060030154421061076a576040517f08c379a000000000000000000000000000000000000000000000000000000000815260040161076190610faf565b60405180910390fd5b6001600460003373ffffffffffffffffffffffffffffffffffffffff1673ffffffffffffffffffffffffffffffffffffffff168152602001908152602001600020600084815260200190815260200160002060006101000a81548160ff0219169083151502179055506001600083815260200190815260200160002060020181815481106107f457fe5b9060005260206000209060030201600201600081548092919060010191905055505050565b600360009054906101000a900473ffffffffffffffffffffffffffffffffffffffff1681565b828054600181600116156101000203166002900490600052602060002090601f016020900481019282601f1061088057805160ff19168380011785556108ae565b828001600101855582156108ae579182015b828111156108ad578251825591602001919060010190610892565b5b5090506108bb919061093f565b5090565b828054600181600116156101000203166002900490600052602060002090601f016020900481019282601f1061090057805160ff191683800117855561092e565b8280016001018555821561092e579182015b8281111561092d578251825591602001919060010190610912565b5b50905061093b919061093f565b5090565b61096191905b8082111561095d576000816000905550600101610945565b5090565b90565b600081359050610973816111dd565b92915050565b60008083601f84011261098b57600080fd5b8235905067ffffffffffffffff8111156109a457600080fd5b6020830191508360208202830111156109bc57600080fd5b9250929050565b600082601f8301126109d457600080fd5b81356109e76109e28261105c565b61102f565b9150818183526020840193506020810190508360005b83811015610a2d5781358601610a138882610a37565b8452602084019350602083019250506001810190506109fd565b5050505092915050565b600082601f830112610a4857600080fd5b8135610a5b610a5682611084565b61102f565b91508082526020830160208301858383011115610a7757600080fd5b610a8283828461118a565b50505092915050565b600082601f830112610a9c57600080fd5b8135610aaf610aaa826110b0565b61102f565b91508082526020830160208301858383011115610acb57600080fd5b610ad683828461118a565b50505092915050565b600081359050610aee816111f4565b92915050565b600060208284031215610b0657600080fd5b6000610b1484828501610964565b91505092915050565b60008060208385031215610b3057600080fd5b600083013567ffffffffffffffff811115610b4a57600080fd5b610b5685828601610979565b92509250509250929050565b600080600060608486031215610b7757600080fd5b600084013567ffffffffffffffff811115610b9157600080fd5b610b9d86828701610a8b565b935050602084013567ffffffffffffffff811115610bba57600080fd5b610bc6868287016109c3565b9250506040610bd786828701610adf565b9150509250925092565b600060208284031215610bf357600080fd5b6000610c0184828501610adf565b91505092915050565b60008060408385031215610c1d57600080fd5b6000610c2b85828601610adf565b9250506020610c3c85828601610adf565b9150509250929050565b6000610c528383610ed8565b905092915050565b610c6381611142565b82525050565b6000610c74826110ec565b610c7e818561110f565b935083602082028501610c90856110dc565b8060005b85811015610ccc5784840389528151610cad8582610c46565b9450610cb883611102565b925060208a01995050600181019050610c94565b50829750879550505050505092915050565b610ce781611154565b82525050565b6000610cf8826110f7565b610d028185611120565b9350610d12818560208601611199565b610d1b816111cc565b840191505092915050565b6000610d33602583611131565b91507f766f7465722063616e206f6e6c7920766f7465206f6e636520666f722061206260008301527f616c6c6f740000000000000000000000000000000000000000000000000000006020830152604082019050919050565b6000610d99602383611131565b91507f63616e206f6e6c7920766f746520756e74696c2062616c6c6f7420656e64206460008301527f61746500000000000000000000000000000000000000000000000000000000006020830152604082019050919050565b6000610dff600a83611131565b91507f6f6e6c792061646d696e000000000000000000000000000000000000000000006000830152602082019050919050565b6000610e3f601483611131565b91507f6f6e6c7920766f746572732063616e20766f74650000000000000000000000006000830152602082019050919050565b6000610e7f602e83611131565b91507f63616e6e6f7420736565207468652062616c6c6f7420726573756c742062656660008301527f6f72652062616c6c6f7420656e640000000000000000000000000000000000006020830152604082019050919050565b6000606083016000830151610ef06000860182610f28565b5060208301518482036020860152610f088282610ced565b9150506040830151610f1d6040860182610f28565b508091505092915050565b610f3181611180565b82525050565b6000602082019050610f4c6000830184610c5a565b92915050565b60006020820190508181036000830152610f6c8184610c69565b905092915050565b6000602082019050610f896000830184610cde565b92915050565b60006020820190508181036000830152610fa881610d26565b9050919050565b60006020820190508181036000830152610fc881610d8c565b9050919050565b60006020820190508181036000830152610fe881610df2565b9050919050565b6000602082019050818103600083015261100881610e32565b9050919050565b6000602082019050818103600083015261102881610e72565b9050919050565b6000604051905081810181811067ffffffffffffffff8211171561105257600080fd5b8060405250919050565b600067ffffffffffffffff82111561107357600080fd5b602082029050602081019050919050565b600067ffffffffffffffff82111561109b57600080fd5b601f19601f8301169050602081019050919050565b600067ffffffffffffffff8211156110c757600080fd5b601f19601f8301169050602081019050919050565b6000819050602082019050919050565b600081519050919050565b600081519050919050565b6000602082019050919050565b600082825260208201905092915050565b600082825260208201905092915050565b600082825260208201905092915050565b600061114d82611160565b9050919050565b60008115159050919050565b600073ffffffffffffffffffffffffffffffffffffffff82169050919050565b6000819050919050565b82818337600083830152505050565b60005b838110156111b757808201518184015260208101905061119c565b838111156111c6576000848401525b50505050565b6000601f19601f8301169050919050565b6111e681611142565b81146111f157600080fd5b50565b6111fd81611180565b811461120857600080fd5b5056fea365627a7a72315820064c35de78f18907e2d42541a27e58bd2cb4e0a3d63661ba7f9555cfa5234cc16c6578706572696d656e74616cf564736f6c63430005100040",
  "source": "pragma solidity ^0.5.2;\r\npragma experimental ABIEncoderV2;\r\n\r\ncontract Voting {\r\n  mapping(address => bool) public voters;\r\n  struct Choice {\r\n    uint id;\r\n    string name;\r\n    uint votes;\r\n  }\r\n  struct Ballot {\r\n    uint id;\r\n    string name;\r\n    Choice[] choices;\r\n    uint end;\r\n  }\r\n  mapping(uint => Ballot) ballots;\r\n  uint nextBallotId;\r\n  address public admin;\r\n  mapping(address => mapping(uint => bool)) votes;\r\n\r\n  constructor() public {\r\n    admin = msg.sender;\r\n  }\r\n\r\n  function addVoters(address[] calldata _voters) external onlyAdmin() {\r\n    for(uint i = 0; i < _voters.length; i++) {\r\n        voters[_voters[i]] = true;\r\n    }\r\n  }\r\n\r\n  function createBallot(\r\n    string memory name,\r\n    string[] memory _choices,\r\n    uint offset\r\n    ) public onlyAdmin() {\r\n      ballots[nextBallotId].id = nextBallotId;\r\n      ballots[nextBallotId].name = name;\r\n      ballots[nextBallotId].end = now + offset;\r\n      for(uint i = 0; i < _choices.length ; i++) {\r\n        ballots[nextBallotId].choices.push(Choice(i, _choices[i], 0));\r\n      }\r\n      nextBallotId++;\r\n  }\r\n\r\n  function vote(uint ballotId, uint choiceId) external {\r\n    require(voters[msg.sender] == true, 'only voters can vote');\r\n    require(votes[msg.sender][ballotId] == false, 'voter can only vote once for a ballot');\r\n    require(now < ballots[ballotId].end, 'can only vote until ballot end date');\r\n    votes[msg.sender][ballotId] = true;\r\n    ballots[ballotId].choices[choiceId].votes++;\r\n  }\r\n\r\n  //If `pragma experimental ABIEncoderV2`\r\n  function results(uint ballotId)\r\n    view\r\n    external\r\n    returns(Choice[] memory) {\r\n    require(now >= ballots[ballotId].end, 'cannot see the ballot result before ballot end');\r\n    return ballots[ballotId].choices;\r\n  }\r\n\r\n  modifier onlyAdmin() {\r\n    require(msg.sender == admin, 'only admin');\r\n    _;\r\n  }\r\n}\r\n",
  "sourcePath": "C:/Users/AI/Voting/contracts/Election.sol",
  "compiler": {
    "name": "solc",
    "version": "0.5.16+commit.9c3226ce.Emscripten.clang"
  },
  "schemaVersion": "3.4.1",
  "updatedAt": "2021-10-20T07:17:21.797Z",
  "devdoc": {
    "methods": {}
  },
  "userdoc": {
    "methods": {}
  }
}